:020000040C00EE
:100000000090FE1F01020008990200080D3B040841
:1000100099020008990200089902000800000000F7
:100020000000000000000000000000006111030853
:100030009902000800000000C113030831140308EE
:100040009902000899020008990200089902000824
:1000500099020008F19C030899020008990200081F
:1000600099020008000000000000000000000000ED
:100070009902000800000000990200089902000897
:1000800099020008990200089902000899020008E4
:1000900099020008990200089902000899020008D4
:1000A00099020008990200089902000899020008C4
:1000B00099020008990200089902000899020008B4
:1000C00099020008990200089902000899020008A4
:1000D0009902000899020008990200089902000894
:1000E0009902000899020008990200089902000884
:1000F0009902000899020008990200089902000874
:100100009902000899020008990200089902000863
:100110009902000899020008990200089902000853
:100120009902000899020008990200089902000843
:100130009902000899020008990200089902000833
:100140009902000899020008990200089902000823
:100150009902000899020008990200089902000813
:10016000000000000000000000000000000000008F
:1001700099020008990200089902000899020008F3
:1001800099020008990200089902000899020008E3
:1001900099020008990200089902000899020008D3
:1001A00099020008CDB5030899020008E138040857
:1001B00099020008D1380408E10E0408D10E0408A1
:1001C0009902000899020008E91D0408D91D0408D5
:1001D0009902000899020008990200080000000036
:1001E0009902000899020008990200089902000883
:1001F00099020008000000009902000800000000B9
:10020000DFF874D01D4880471D4C1E4DAC4209DA02
:1002100021686268A368043BA2BFC858D050FAE7BF
:100220000C34F3E7184B194CA34208DA19685A68E2
:100230000020043AA4BF8850FBE70833F4E71448D1
:100240008047144880470000501C070C0090FE1F98
:1002500094130000501C070C0090FE1F00000000CB
:10026000A0A3FE1F583D0100000000200000000078
:1002700000000020000003000090FE1F4DB40008A5
:1002800048020008600200086002000878020008C6
:1002900041A6040825FB0308FEE7000080B485B0F2
:1002A00000AF78600B467B807B68FB60FB68002BAF
:1002B00002D0FB687A881A801437BD465DF8047B4B
:1002C000704700BF80B48DB000AF03463960FB803B
:1002D0001346BB80FB88FB620023BB6200237B626A
:1002E000002387F823303B68002B00F0C380FB8895
:1002F000002B00F0BF80BB88092B40F0BB80FB6A5D
:10030000FF2B1CDDFB6A1B12BB62FA6A5D4B1340BC
:10031000002B03DA013B63F0FF030133FB62BB6A8E
:10032000FF2B0CDDBB6A1B127B62BA6A554B134074
:10033000002B03DA013B63F0FF030133BB627B6AEE
:10034000DBB23B72BB6ADBB27B72FB6ADBB2BB72B5
:10035000FB880333FB62FB6AFF2B1CDDFB6A1B126D
:10036000BB62FA6A474B1340002B03DA013B63F090
:10037000FF030133FB62BB6AFF2B0CDDBB6A1B1260
:100380007B62BA6A3F4B1340002B03DA013B63F0F8
:10039000FF030133BB627B6ADBB23B73BB6ADBB238
:1003A0007B73FB6ADBB2BB73FB880633FB62FB6AC1
:1003B000FF2B1CDDFB6A1B12BB62FA6A314B134038
:1003C000002B03DA013B63F0FF030133FB62BB6ADE
:1003D000FF2B0CDDBB6A1B127B62BA6A294B1340F0
:1003E000002B03DA013B63F0FF030133BB62C02340
:1003F0003B74BB6ADBB27B74FB6ADBB2BB74002369
:10040000FB610BE0FB693A68134407F11001FA69DC
:100410000A4412781A70FB690133FB61FB69022BF5
:10042000F0DD0023BB610CE0BB6903333A68134481
:1004300007F10C01BA690A4412781A70BB690133DA
:10044000BB61BB69022BEFDD00237B610CE07B69A4
:1004500006333A68134407F108017A690A441278AE
:100460001A707B6901337B617B69022BEFDD01230D
:1004700087F8233097F8233018463437BD465DF8A7
:10048000047B7047FF0000802DE9F0438DB002AF80
:10049000F860B9607A606B461E4600233B62092310
:1004A000FB77FB7F013BBB61FA7F4FF000034FEA14
:1004B000C30949EA52794FEAC208FA7F4FF00003B4
:1004C000DD0045EA5275D400FB7F0733DB08DB0013
:1004D000ADEB030D02AB00337B6140F20233FB84D2
:1004E00000233B6107F11003F868194610224BF016
:1004F00049FC38623B6A002B63D03B6A4FF6FE72C0
:1005000093425EDC7B684FF6FE72934259D87B685B
:1005100099B27A69FB7F9BB2084611461A46FFF7EB
:10052000D1FE0346002B4CD0294802F0B1FF294BE5
:1005300001221A82274BD9683B6A9AB27B690093E1
:1005400009230193084611464022002303F08CF949
:100550000346FB84FB8C002B30D102E00A2032F0F2
:10056000C3FD1C4B1B8A012BF8D01A4B1B8A002B96
:1005700024D1184B01221A82164BD8683B6A99B2D3
:10058000FB7F9CB27B689BB2BA6800920193002209
:10059000234603F069F90346FB84FB8C002B0DD145
:1005A00002E00A2032F0A0FD0A4B1B8A012BF8D092
:1005B000084B1B8A002B01D10023FB84044802F066
:1005C0008FFFFB8CB54618462C37BD46BDE8F0833F
:1005D0005CD0FF1FA0A3FE1F80B58AB002AFF860F9
:1005E000B9607A600023BB6140F20233FB830023D1
:1005F0007B6107F11403F868194610224BF0C2FB27
:10060000B861BB69002B30D0BB69B3F5803F2CDAF1
:100610007B68B3F5803F28D2164802F039FF164BAD
:1006200001221A82144BD868BB6999B27B689BB2CD
:10063000BA68009201934022002303F015F90346A3
:10064000FB83FB8B002B0DD102E00A2032F04CFD26
:10065000094B1B8A012BF8D0074B1B8A002B01D1B9
:100660000023FB83034802F03BFFFB8B1846203737
:10067000BD4680BD5CD0FF1FA0A3FE1F90B58BB010
:1006800002AFF860B9607A600023FB610023BB61B0
:100690000023FB7500233B6140F20233BB827B6881
:1006A000B3F5D86F00F28480FB685B681846434955
:1006B00007224AF083FA0346002B0AD13F48B96863
:1006C0007A68FFF7E1FE0346002B71D10523FB6139
:1006D0006EE0FB685B681846394907224AF06EFAFB
:1006E0000346002B02D10123FB6161E0FB685B68DC
:1006F0001846344907224AF061FA0346002B0AD112
:100700003048B9687A68FFF767FF0346002B4FD17E
:100710000323FB614CE0FB685B6818462A4907220B
:100720004AF04CFA0346002B42D107F11003264849
:10073000194610224BF026FBB861BB69002B37D05D
:10074000BB694FF6FE72934232DC7B684FF6FE7255
:1007500093422DD81D4802F09BFE1D4B01221A82A8
:100760001B4BD868BB6999B2FB7D9CB27B689BB27E
:10077000BA68009201934022234603F075F80346BD
:10078000BB82BB8A002B10D102E00A2032F0ACFC05
:100790000F4B1B8A012BF8D00D4B1B8A002B04D169
:1007A000BB8A002B01D10723FB61084802F098FEA9
:1007B000FB6918462437BD4690BD00BF683B05085D
:1007C000703B0508783B0508803B05085CD0FF1F9F
:1007D000A0A3FE1F80B584B000AF78600B46FB700D
:1007E0000023FB607868174907224AF0E7F90346BF
:1007F000002B02D10523FB601FE078681249072215
:100800004AF0DCF90346002B02D10123FB6014E01F
:1008100078680E4907224AF0D1F90346002B02D12D
:100820000323FB6009E07868094907224AF0C6F90A
:100830000346002B01D10723FB60FB6818461037E5
:10084000BD4680BD683B0508703B0508783B050840
:10085000803B050890B58BB002AFF860B9607A6054
:100860003B600023FB610023BB6100233B6100234D
:10087000FB753B6800221A70FB68052B04D0072B20
:1008800016D0032B0BD01CE007F110033C4819468F
:1008900010224BF077FAB8610923FB7514E007F1D9
:1008A00010033848194610224BF06CFAB8610BE07F
:1008B00007F110033448194610224BF063FAB8616F
:1008C00002E06023FB6100BF4FF4D86030F0EEF926
:1008D0000246BB681A60BB681B68002B4AD07B6865
:1008E0004FF4D8621A60BB69002B43D0BB694FF646
:1008F000FE7293423EDC7B68002B3BD0234802F023
:10090000C7FD234B01221A82214BD868BB6999B2DB
:10091000FB7D9AB2BB681C687B680093234602F09B
:1009200041FF0346BB82BB8A002B20D102E00A2094
:1009300032F0DAFB164B1B8A012BF8D0144B1B8AC2
:1009400048F20802934206D1BB6800221A607B6815
:1009500000221A600BE00E4B1B8A002B07D0BB68ED
:1009600000221A607B6800221A606023FB6107483E
:1009700002F0B6FDFB6918462437BD4690BD00BFA6
:10098000683B0508783B0508803B05085CD0FF1FE5
:10099000A0A3FE1F80B582B000AF78603960786890
:1009A00030F052FA0837BD4680BD00BF80B483B036
:1009B00000AF78607B6818460C37BD465DF8047B55
:1009C000704700BF80B584B002AF00237B60434B0B
:1009D0001B78012B02D140F291137B607B68002BC6
:1009E00077D13E4800214FF484724AF017FA02F0A2
:1009F00013FA002002F030FB012031F08DF902469D
:100A0000364B5A6000203649364A03F0E3F8024676
:100A1000324B9A6000203249324A02F02FFE0246E1
:100A20002E4BDA602D4B01221A822C4BDB681846C4
:100A3000002102F07FFE03467B607B68002B01D023
:100A400006237B6002E00A2002F07EFD234B1B8A16
:100A5000012BF8D0214B9B68002B0AD01F4BDB6881
:100A6000002B06D01D4B1B8A002B02D17B68062B66
:100A700002D106237B602CE04EF2C4037B800F235F
:100A80007B70164B01221A82144BD9687A887B1C22
:100A9000009301230193084611460022002302F02F
:100AA000E3FE03467B607B68002B01D006237B605E
:100AB0007B68002B0DD102E00A2002F045FD074BB8
:100AC0001B8A012BF8D0054B1B8A002B01D0062373
:100AD0007B607B6818460837BD4680BDA0A3FE1F1B
:100AE0009D020008B0A3FE1F80B582B000AF0023B6
:100AF0007B60114B1B78012B18D17B68002B15D123
:100B00000D4B9B68184603F09FF803467B600A4B29
:100B1000DB68184602F0ECFD03461A467B68134377
:100B20007B607B68002B01D006237B607B681846C6
:100B30000837BD4680BD00BFA0A3FE1F80B58AB0A8
:100B400000AFF860B9607A60D0237B6200233B621B
:100B500000233B621BE03A6A13465B0013449B0090
:100B60001A46FB681A4407F1140307CA83E8070012
:100B70007B69002B08D1BB697868194604224AF0CA
:100B80004FF800237B6206E03B6A01333B623A6A1E
:100B9000BB689A42DFD37B6A18462837BD4680BDC2
:100BA00080B586B000AFF860B9607A603B607B6862
:100BB00000221A603B6800221A600023FB7524E0C3
:100BC000FA7D13469B001344DB001033124A134492
:100BD0000833F8681946BA6849F0F0FF0346002B5D
:100BE00010D1FA7D0C4913469B001344DB000B44E3
:100BF00010335A687B681A60FB7D01331A463B68E4
:100C00001A6005E0FB7D0133FB75FB7D052BD7D911
:100C10001837BD4680BD00BFA0A3FE1F80B586B0BB
:100C200000AFF860B9607A603B60FB68013B7B61B4
:100C30007B6800221A603B6800221A607B69062BE1
:100C400032DC1F497A6913469B001344DB000B44D6
:100C500010335B68002B2FD07A6913469B00134436
:100C6000DB001033164A134403F108027B681A6054
:100C70007A6913469B001344DB001033104A134477
:100C8000083318464AF0DAFC03465A1C3B681A60DF
:100C90000B497A6913469B001344DB000B44103365
:100CA0005A68BB681A6007E07B6800221A603B68DC
:100CB00000221A600023BB601837BD4680BD00BF0C
:100CC000A0A3FE1F80B586B000AF786000237B61D3
:100CD0007B68013B3B611B4B5B6818464FF0FF3163
:100CE00031F034FCF860FB68012B24D115493A69D6
:100CF00013469B001344DB000B4410335B68002B4E
:100D00000ED03A6913469B001344DB0010330D4AA2
:100D1000134404331846002128224AF07FF801E0EA
:100D200082237B61074B5B68184600210022002369
:100D300031F0C6F801E00A237B617B691846183759
:100D4000BD4680BDA0A3FE1F80B58AB000AFF8608D
:100D5000B9607A603B6000237B62002387F8233010
:100D60004FF0FF33FB610523BB61364B5B681846D0
:100D70004FF0FF3131F0EAFB78617B69012B59D1EB
:100D80000523BB611FE02F49BA6913469B0013443A
:100D9000DB000B4410335A68FB689A4203D10123ED
:100DA00087F8233012E02749BA6913469B001344A1
:100DB000DB000B4410335B68002B01D1BB69FB6186
:100DC000BB69013BBB61BB69002BDCDA97F82330C0
:100DD000002B26D1FB69B3F1FF3F22D03B681F2BCC
:100DE0001DD81849FA6913469B001344DB000B44D5
:100DF0001033FA685A60FA6913469B001344DB000B
:100E00001033104A13440833184679683A6849F099
:100E100007FFFB6901331A46BB681A6001E0212312
:100E20007B62084B5B68184600210022002331F0EA
:100E300047F801E00A237B627B6A18462837BD46E3
:100E400080BD00BFA0A3FE1F90B5A5B004AF786021
:100E50000023BB660023FB6700237B6600237B67C0
:100E60000023BB67002387F873300023FB66002351
:100E7000BB6500237B6507F1600107F1680207F19C
:100E800064037868FFF7CAFEBB6E002B00F0F180A8
:100E9000BA6E7B6E10467E491A4649F08FFE0346B5
:100EA000002B5AD1BC6EBB6E18464AF0C7FB0146F8
:100EB00007F1600207F15C032046FFF771FE3B6E0D
:100EC000002B04D0FB6D1846FFF7FCFEB867BA6E26
:100ED00007F154031046194610224AF053FF034607
:100EE000BB654423A7F852306A4802F0D1FA6A4B36
:100EF00001221A82684B9A6807F15803009307F1A0
:100F00000C03019307F152030293104603211022B0
:100F1000002303F005F80346BB67BB6F002B04D02A
:100F20005E4812F01DFE0623BB67BB6F002B10D17D
:100F300002E00A2032F0D8F8574B1B8A012BF8D078
:100F4000554B1B8A002B04D0544812F009FE06238F
:100F5000BB67504802F0C4FA82E0BA6E7B6E10465E
:100F60004F491A4649F02AFE0346002B02D14C4B4A
:100F7000FB6718E0BA6E7B6E10464A491A4649F084
:100F80001DFE0346002B02D1464BFB670BE0BA6EF9
:100F90007B6E104644491A4649F010FE0346002B6A
:100FA00001D1414BFB67FB6F002B57D007F1540376
:100FB000F86F194610224AF0E5FE0346BB65BB6D8B
:100FC000002B4DD0BB6DB3F5803F49DA002387F885
:100FD0005030304802F05CFA2F4B01221A822E4B1F
:100FE000D968BB6D9AB207F15003009301230193B6
:100FF000084611464022002302F036FC0346BB6738
:10100000BB6F002B01D00623BB67BB6F002B21D128
:1010100002E00A2032F068F81F4B1B8A012BF8D03F
:101020001D4B1B8A002B02D00623BB6712E0F86F12
:101030004AF004FB014607F1600207F15C03F86F18
:10104000FFF7AEFD3B6E002B04D0FB6D1846FFF79B
:1010500039FEB8670F4802F043FA01E06023BB672E
:10106000FA6D7B689A4206D07868FFF72BFEB86766
:1010700001E06023BB6797F87330012B03D1F86E52
:10108000796FFFF787FCBB6F18468437BD4690BD6C
:10109000703B05085CD0FF1FA0A3FE1FA03B050806
:1010A000783B0508683B0508803B050880B586B09D
:1010B00000AF786000237B61134B1B78012B1BD0A2
:1010C000FFF780FC78617B69002B18D10F4806215F
:1010D000FFF780FB386107F10C03386919460B4AAA
:1010E0000623FFF731FE78617B69002B03D1064BA5
:1010F00001221A7003E002E040F291137B617B69E8
:1011000018461837BD4680BDA0A3FE1F703B0508DA
:1011100080B584B000AF78600023FB607B68002B53
:1011200001D00723FB60FB68002B15D10D4B1B780A
:10113000002B03D14FF4C873FB6002E0FFF7D4FC2F
:10114000F860FB68002B07D1064B5B68184631F04E
:10115000A3FB044B00221A70FB6818461037BD46EB
:1011600080BD00BFA0A3FE1F80B485B000AF786033
:101170000023FB607B68002B02D10723FB6002E0A9
:101180007B68044A1A60FB6818461437BD465DF850
:10119000047B70470090FE1F80B487B000AF034609
:1011A000B9607A60FB7300237B617B68002B02D1FE
:1011B00007237B6114E0BB68002B03D17B6801220D
:1011C0001A600DE07B681B68002B03D14FF4A873F5
:1011D0007B6105E0BB6801221A607B6801221A600E
:1011E0007B6918461C37BD465DF8047B704700BF1D
:1011F000B0B483B000AF786039603B68002B2ED06C
:101200003B68112283F88E203B68182283F88F20D8
:101210003B68012283F88C203B68002283F88D20F4
:101220003B682033114A1D4614460FCC2860696084
:10123000AA60EB6003CC2861696123782B763B6858
:1012400040330B4A1C46134607CB20606160A26006
:101250001A889B78A281A3733B6804225A660023F4
:1012600018460C37BD46B0BC704700BFCC3B0508E4
:10127000E83B0508B0B592B000AFF860B9607A609D
:1012800070237B64184B07F110041D460FCD0FC46B
:101290000FCD0FC495E80F0084E80F0000233B64D6
:1012A0001AE03B6C1B0107F148021344383B1A68F3
:1012B000BB689A420DD107F110023B6C1B0113442D
:1012C0000433786819460C2249F0AAFC00237B6499
:1012D00005E03B6C01333B643B6C022BE1D97B6C3A
:1012E00018464837BD46B0BDF83B050880B485B008
:1012F00000AFF860B9607A603B600023184614378D
:10130000BD465DF8047B704780B586B000AFF860DD
:10131000B9607A603B6000237B6100233B61254B11
:101320001B78012B02D04FF4C8737B613B6A002B02
:1013300001D107237B61BB6803F00403002B01D1BB
:10134000B4237B617B69002B10D1B4202FF0AEFC5D
:1013500038613B69002B01D102237B617B69002B43
:1013600004D138690021B42249F058FD7B69002B73
:101370000AD1BB6803F002023B691A603B69012293
:101380001A713A693B6A1A607B69002B03D13B6989
:101390004FF0FF329A603B69002B05D07B69002B30
:1013A00002D038692FF050FD7B6918461837BD46CA
:1013B00080BD00BFA0A3FE1F80B584B000AF7860E1
:1013C000144B1B78012B0CD17B68002B07D07B685A
:1013D0001B79012B01D1002305E0B02303E0B323E7
:1013E00001E04FF4C873FB607868FFF7DFFAB8607C
:1013F000FB68002B06D1BB68002B03D0B8682FF028
:1014000023FD01E0B323FB60FB6818461037BD469F
:1014100080BD00BFA0A3FE1F80B485B000AFF86000
:10142000B9607A603B60002318461437BD465DF80A
:10143000047B704780B58EB000AFF860B9607A6009
:1014400000237B6300233B630023FB620023BB621A
:1014500000237B620023FB6100233B6200233B628D
:1014600047E03A6A13465B0013449B001A46FB6848
:101470001A4407F1100307CA83E807003B69032BEE
:1014800011D0032B02D8012B2CD82EE0802B1AD0A0
:1014900040F20112934228D0112B23D17B693B6388
:1014A000BB69FB6222E0BB691F2B09D83A6A13466D
:1014B0005B0013449B001A46FB681344BB6215E0B3
:1014C00021237B6312E07B6907F11C021046194659
:1014D000042249F0A5FBFB69002B02D013237B6398
:1014E00004E003E0D1237B6300E000BF3B6A0133EB
:1014F0003B623A6ABB689A42B3D33B6B002B02D083
:10150000BB6A002B01D1D0237B637B6B002B0AD1FC
:10151000B86A396BFA6AFFF7B1F878627B6A002B18
:1015200001D131237B637B6B002B08D1BB6A5A68E6
:10153000BB6A9B68786A7968FFF706FC78637B6B07
:1015400018463837BD4680BD80B588B000AF78609A
:1015500039604FF0FF33BB610023FB611CE0FA6987
:1015600013465B0013449B001A467B681A4407F13C
:101570000C0307CA83E80700FB68B3F5807F08D136
:101580003B6907F1180210461946042249F048FB4E
:1015900006E0FB690133FB61FA693B689A42DED3DE
:1015A000BB6918462037BD4680BD00BF80B489B0F6
:1015B00000AFF860B9607A60FB6800221A6000230F
:1015C000FB611DE0FA6913465B0013449B001A4659
:1015D000BB681A4407F1100307CA83E807003B6998
:1015E000032B0AD1FA6913465B0013449B001A4689
:1015F000BB681A44FB681A6006E0FB690133FB61B3
:10160000FA697B689A42DDD32437BD465DF8047BD6
:10161000704700BF80B58EB000AFF860B9607A60E7
:101620003B6000237B6300233B6386E03A6B1346F9
:101630005B0013449B001A463B681A4407F11403ED
:1016400007CA83E807007B69B3F5807F71D0B3F5E3
:10165000807F04D8012B6CD9032B0BD061E0B3F54C
:10166000C07F2CD040F28112934243D0B3F5857FE6
:1016700011D056E0FB691F2B0AD83A6B13465B006A
:1016800013449B001A463B681A447B681A6051E079
:1016900021237B634EE0BA69FB6907F12301084609
:1016A00011461A4649F0BCFA97F82330012B05D0B1
:1016B000274812F055FA13237B633BE03AE0254AB2
:1016C00007F124031068516803C312891A80BA69AC
:1016D000FB6907F12401084611461A4649F06EFAE3
:1016E0000346002B05D01C4812F03AFA13237B6303
:1016F00020E01FE0BB681A68FB69023B9A420DD9E3
:10170000BB699A1CFB69023BF86811461A4649F00E
:1017100087FAFB699A1EBB681A600BE013237B6390
:1017200008E07B690D48194612F01AFA12237B6310
:1017300000E000BF3B6B01333B633A6B3B6C9A426A
:10174000FFF474AF7B6B18463837BD4680BD00BFD1
:10175000283C0508D03C0508643C0508983C050871
:1017600080B5A4B002AFF860B9607A600023C7F812
:1017700084300023BB670023C7F8803064233B61BB
:10178000F868B968FFF7E0FEF867FB6F032B02D03B
:10179000FB6F032B16D107F178031846F968BA6876
:1017A000FFF704FF07F1140007F1100107F17802B9
:1017B000BB6800937B680193FB68FFF72BFFC7F8BA
:1017C000840006E01848F96F12F0CAF9D123C7F86F
:1017D0008430D7F88430002B11D1B96F3B6907F101
:1017E0001402084611461A46FEF748FFC7F8800063
:1017F000D7F88030002B02D13123C7F88430D7F8D6
:101800008430002B0AD1BB6F5A68BB6F9B68D7F836
:1018100080007968FFF798FAC7F88400D7F8843019
:1018200018468837BD4680BDDC3C050880B586B0CB
:1018300000AFF860B9607A603B60264B1B78012BE3
:101840000CD1FB68002B07D0FB681B79012B01D161
:10185000002305E0B02303E0B32301E04FF4C87395
:101860007B61BB68002B05D03B68002B02D07B69F5
:10187000002B01D007237B617B69002B07D107F187
:101880001003B86879681A46FFF758F978617B69E0
:10189000002B1AD13B69022B0DD0032B08D0012B52
:1018A00010D1B86879683A68FFF7C4FD78610CE038
:1018B00013237B6109E0B86879683A68FFF750FF45
:1018C000786102E013237B6100BF7B6918461837FB
:1018D000BD4680BDA0A3FE1F80B584B000AF786078
:1018E00039603868FFF7B0FAF860FB6818461037BF
:1018F000BD4680BD80B592B000AFF860B9607A6037
:101900003B60B24B1B78012B0CD1FB68002B07D03E
:10191000FB681B79012B01D1002305E0B02303E014
:10192000B32301E04FF4C8737B64012387F83F3091
:101930004FF0FF33BB6300233B630023FB62A44AE9
:1019400007F120031068516803C312891A8000232D
:10195000FB6100237B617B6C002B05D17B68002B36
:1019600002D03B68002B02D107237B6422E007F101
:101970001C0107F1140207F11803B868FFF74EF9CC
:10198000FB69002B11D0FB69012B0ED0FB69022BE8
:101990000BD0F86907F1300107F12C0207F13F0382
:1019A000FEF758FF03467B6404E0FB69002B01D17E
:1019B00020237B647B6C002B02D020237B641FE000
:1019C000FB69013B052B18D801A252F823F000BF98
:1019D000E9190008E9190008EF190008EF190008D3
:1019E000F5190008F519000803237B6308E00223BA
:1019F0007B6305E001237B6302E020237B6400BF5F
:101A00007B6C002B40F0728100233B6460E13A6CF8
:101A100013465B0013449B001A467B6813441B6803
:101A2000B3F5807F00F09380B3F5807F04D8002B5E
:101A30000CD0112B41D046E1B3F5C07F00F0CA8035
:101A400040F28112934200F0FC803CE13A6C134674
:101A50005B0013449B001A467B6813445B68002BB1
:101A60000AD13A6C13465B0013449B001A467B680C
:101A7000134404229A601FE03A6C13465B0013443F
:101A80009B001A467B6813449B68032B10D93A6C61
:101A900013465B0013449B001A467B6813445A6844
:101AA00007F1340310461946042249F0B9F803E05F
:101AB0004FF4A8737B6408E107E197F83F30012BEE
:101AC0000DD13A6C13465B0013449B001A467B68A9
:101AD00013444FF0FF329A6011237B6436E03A6C76
:101AE00013465B0013449B001A467B6813445B68F3
:101AF000002B0AD13A6C13465B0013449B001A4634
:101B00007B681344FA6A9A6020E03A6C13465B00E3
:101B100013449B001A467B6813449A68FB6A9A42F6
:101B200003D24FF4A8737B6410E03A6C13465B0059
:101B300013449B001A467B68134459683A6BFB6A4E
:101B4000084611461A4649F06BF8BEE0BDE03A6C13
:101B500013465B0013449B001A467B6813445B6882
:101B6000002B0AD13A6C13465B0013449B001A46C3
:101B70007B68134404229A6027E03A6C13465B00AA
:101B800013449B001A467B6813449B68032B03D8BD
:101B90004FF4A8737B6418E07B6C002B02D0062303
:101BA0007B6412E00323BB633A6C13465B0013446F
:101BB0009B001A467B6813445A6807F138031046A5
:101BC0001946042249F02CF87FE07EE0A0A3FE1F16
:101BD000D03C05083A6C13465B0013449B001A4640
:101BE0007B6813440A229A603A6C13465B001344E4
:101BF0009B001A467B6813445B68002B20D03A6C2C
:101C000013465B0013449B001A467B6813449B6891
:101C1000092B03D84FF4A8737B6411E03A6C134688
:101C20005B0013449B001A467B6813445B681A46AA
:101C300007F1200303CB106051601B88138144E03F
:101C400043E03A6C13465B0013449B001A467B68E2
:101C500013445B68002B0AD13A6C13465B001344B3
:101C60009B001A467B68134443229A602AE03A6C30
:101C700013465B0013449B001A467B6813449A6822
:101C8000FB6A9A4203D24FF4A8737B641AE03A6C61
:101C900013465B0013449B001A467B681344596843
:101CA0003A6BFB6A084611461A4648F0B9FF3A6C8F
:101CB00013465B0013449B001A467B681344FA6A80
:101CC0009A6002E001E012237B643B6C01333B64C9
:101CD0003A6C3B689A4203D27B6C002B3FF497AE80
:101CE0003A6BFB6A10461946FEF754FE7B6C1846A9
:101CF0004837BD4680BD00BF80B58CB000AFF860EE
:101D0000B9607A60F868FEF751FE38624A4B1B787A
:101D1000012B0CD1FB68002B07D0FB681B79012B32
:101D200001D1002305E0B02303E0B32301E04FF429
:101D3000C873FB620023BB623B6A002B03D03B6A83
:101D40001B79012B05D0B323FB623C4811F008FF3F
:101D50001BE03B6A1B69002B05D09023FB623848CF
:101D600011F0FEFE11E0BB68002B02D10723FB62DD
:101D70000BE07B68012B08D07B68022B05D0072382
:101D8000FB623048796811F0EBFEFB6A002B17D13B
:101D9000BB689B68013318462EF088FFB8623B6A27
:101DA000BA6A1A61BB6A002B08D0BB689B68013312
:101DB000B86A00211A4649F031F801E00223FB62BB
:101DC000FB6A002B26D1D023FB6200237B621DE03F
:101DD0007A6A13465B0013449B001A46BB681A4498
:101DE00007F1140307CA83E807007B69032B0AD1B4
:101DF0003B6A1969BA69FB69084611461A4648F0F8
:101E00000FFF0023FB627B6A01337B627A6A7B6887
:101E10009A42DDD3FB6A002B08D0BB6A002B05D0A9
:101E2000B86A2FF011F83B6A00221A61FB6A184663
:101E30003037BD4680BD00BFA0A3FE1FF43C05089F
:101E4000103D0508483D0508B0B58EB000AFF860FC
:101E5000B9607A603B60744B1B78012B0CD1FB6836
:101E6000002B07D0FB681B79012B01D1002305E073
:101E7000B02303E0B32301E04FF4C8737B63002376
:101E80003B63F868FEF792FD786200233B62002313
:101E9000FB610123FB76002387F82F3000237B6151
:101EA0007B6B002B05D1BB68002B02D03B68002B5D
:101EB00003D107237B6301233B637B6A1B69002BF0
:101EC00003D191237B6301233B637B68002B03D108
:101ED00007237B6301233B633B6B002B0AD17B6AA7
:101EE0005B7B012B06D13B6800221A6000237B63D9
:101EF00001233B633B6B002B40F090807B6A1C69A5
:101F00007B6A1B69184649F099FB024607F11403E6
:101F1000204611461A46BB68FEF742FEBB681B68A6
:101F2000002B0ED17B6A1C697B6A1B69184649F03D
:101F300085FB0346DBB220461946FEF74BFC034601
:101F40007B617B69002B55D07B69012B52D07B696B
:101F5000022B4FD0786907F1200107F11C0207F12D
:101F60001B03FEF777FC03467B637B6B002B0AD1D8
:101F7000FB69002B07D13B6800221A6000237B63BA
:101F800001233B6335E07B6B002B32D10023BB6226
:101F90000BE03A6ABB6A13441A7897F82F30134360
:101FA00087F82F30BB6A0133BB62FB69BA6A9A4279
:101FB000EFD3FB69012B03D1BB6800221A6011E04B
:101FC0007D697B6A1C697B6A1B69184649F036FB90
:101FD00003462846B9682246FEF7B6FE78633B689A
:101FE00001221A603A6AFB6910461946FEF7D2FCD4
:101FF00014E013E07B69012B02D07B69022B05D131
:102000003B6801221A6000237B6307E07B6A1B693F
:102010000648194611F0A4FD06237B637B6B184626
:102020003837BD46B0BD00BFA0A3FE1F8C3D0508DC
:1020300080B584B000AF7860194B1B78012B0CD1B0
:102040007B68002B07D07B681B79012B01D1002313
:1020500005E0B02303E0B32301E04FF4C873FB6055
:102060007868FEF7A3FCB860BB681B79012B01D030
:10207000B323FB60BB681B69002B01D19123FB607C
:10208000FB68002B07D1BB681B6918462EF0DCFEED
:10209000BB6800221A61FB6818461037BD4680BD38
:1020A000A0A3FE1F80B584B000AF78603960344BC8
:1020B0001B78012B0CD17B68002B07D07B681B7928
:1020C000012B01D1002305E0B02303E0B32301E09D
:1020D0004FF4C873FB607868FEF768FCB860BB68B3
:1020E000002B01D1B323FB603B681B68B3F5147F61
:1020F00001D07023FB60FB68002B3BD1BB6803F170
:102100002802BB68C3F8AC20BB688222A3F8B020C9
:10211000BB68E22283F8B2201A4801F0B9F9184BE3
:1021200001221A82164B9A68BB68AC3310461946D6
:1021300001F0DAFD0346FB60FB68002B01D00623AB
:10214000FB60FB68002B12D102E00A2030F0CCFFCC
:102150000B4B1B8A012BF8D0094B1B8A002B02D09A
:102160000623FB6003E03B681A68BB689A60054879
:1021700001F0B6F9FB6818461037BD4680BD00BFB8
:10218000A0A3FE1F5CD0FF1F80B588B000AFF86031
:10219000B9607A60304B1B78012B0CD1FB68002BA7
:1021A00007D0FB681B79012B01D1002305E0B02388
:1021B00003E0B32301E04FF4C873FB61F868FEF756
:1021C000F5FBB861BB69002B02D1B323FB6106E0CC
:1021D000BB699B68B3F5147F01D09123FB61FB6958
:1021E000002B34D1BB683B617B687B611B4801F0ED
:1021F0004FF9194B01221A82174B9968BB6903F1F9
:10220000AC0207F1100308461146012201F0BEFDA1
:102210000346FB61FB69002B01D00623FB61FB69D0
:10222000002B11D102E00A2030F05EFF0A4B1B8A1E
:10223000012BF8D0084B1B8A002B05D00623FB612D
:10224000BB694FF0FF329A60044801F049F9FB691D
:1022500018462037BD4680BDA0A3FE1F5CD0FF1FDF
:1022600080B586B000AFF860B9607A60364B1B78F5
:10227000012B0CD1FB68002B07D0FB681B79012BCD
:1022800001D1002305E0B02303E0B32301E04FF4C4
:10229000C8737B61F868FEF789FB38613B69002BE6
:1022A00002D1B3237B610AE03B699B68B3F5147FDD
:1022B00005D091237B613B694FF0FF329A607B69C7
:1022C000002B3CD1BB68002B03D17B6820221A6015
:1022D00035E07B681B681F2B03D84FF4A8737B6124
:1022E0002DE01A4801F0D4F8174B01221A82164B40
:1022F0009A683B69AC3310461946BA6801F0B4FDE0
:1023000003467B617B69002B01D006237B617B69DF
:10231000002B0DD102E00A2030F0E6FE0A4B1B8AAA
:10232000012BF8D0084B1B8A002B01D006237B61C0
:10233000064801F0D5F83B694FF0FF329A607B699F
:1023400018461837BD4680BDA0A3FE1F5CD0FF1FF6
:1023500080B58CB000AFF860B9607A60364B1B78FE
:10236000012B0CD1FB68002B07D0FB681B79012BDC
:1023700001D1002305E0B02303E0B32301E04FF4D3
:10238000C873FB620023FB610023BB61F868FEF7A2
:102390000DFBB86200237B6200237B61BB68002BCE
:1023A00004D1264811F0DCFB0723FB62FB6A002BFB
:1023B00027D107F1200107F11C0207F11803786803
:1023C000FEF72CFC3B6A002B19D0FA6907F11403C5
:1023D00010461946102249F0D5FC78627B6A002B22
:1023E00008D07B6AB3F5803F04DA7B6A9AB2BB6A95
:1023F0009A8406E01248F96A11F0B2FB01E060230A
:10240000FB62FB6A002B12D1BB681B6841F24102E0
:10241000934208D0BB681B680A48194611F0A0FB1C
:102420007023FB6203E0BB681A68BB6A1A62FB6A2E
:1024300018463037BD4680BDA0A3FE1FB83D050835
:10244000E43D0508283E050890B59FB002AFF8604E
:10245000B9607A603B60534B1B78012B0CD1FB6851
:10246000002B07D0FB681B79012B01D1002305E06D
:10247000B02303E0B32301E04FF4C873FB66F868B0
:10248000FEF794FA38660023BB6600237B6646237A
:10249000FB82D7F88030002B01D10723FB66FB6E4F
:1024A000002B03D14023BB6620237B66FB6E002BF1
:1024B00052D13B68002B04D1D7F88030BA6E1A6035
:1024C0004AE0D7F880301A68BB6E9A4202D24FF4C5
:1024D000A873FB66FB6E002B05D17A6E7B689A426F
:1024E00001D02123FB66FB6E002B35D13B6E9B8C0C
:1024F000002B31D02C4800F0CBFF2A4B01221A824E
:10250000284B99687B6EDAB23B6E9C8C07F11803FE
:10251000009307F1160301930846B968234601F0BA
:102520001FFD0346FB66FB6E002B01D00623FB66F6
:10253000FB6E002B0DD102E00A2030F0D5FD194BC7
:102540001B8A012BF8D0174B1B8A002B01D00623C6
:10255000FB66154800F0C4FFFB6E002B09D1FB8A17
:102560001A4607F11803184611463A68402305F049
:10257000E9FEFB6E002B03D0FB6EB3F5A87F03D101
:10258000D7F8803040221A60FB6EB3F5A87F03D0E5
:102590003B6E4FF0FF321A62FB6E18467437BD4631
:1025A00090BD00BFA0A3FE1F5CD0FF1F80B58CB004
:1025B00000AFF860B9607A600023FB6200233B62E1
:1025C0000023FB610023BB610023BB6200237B610E
:1025D000F868FEF7EBF97862BB68002B01D107239E
:1025E000FB62FB6A002B27D107F1200107F11C02D7
:1025F00007F118037868FEF711FB3B6A002B19D02E
:10260000FA6907F1140310461946102249F0BAFB83
:10261000B862BB6A002B08D0BB6AB3F5803F04DA0E
:10262000BB6A9AB27B6A9A8306E00C48F96A11F099
:1026300097FA01E06023FB62BB681B6841F241022C
:10264000934204D1BB681A687B6A9A6101E07023E7
:10265000FB62FB6A18463037BD4680BDE43D050885
:1026600090B5BBB004AFF860B9607A603B600023FE
:10267000C7F8D4304623C7F88430F868FEF796F9D7
:10268000C7F8D000BB68002B02D03B68002B02D1FA
:102690000723C7F8D430D7F8D430002B17D1D7F898
:1026A000D0309B6941F2410293420DD17B68202BCF
:1026B00002D02123C7F8D430D7F8E830402B06D019
:1026C000C123C7F8D43002E09123C7F8D430D7F83B
:1026D000D430002B40F0B5803B6803F1200207F1B5
:1026E000880407F1840300933868114620222346AA
:1026F00005F02AFD034683F00103DBB2002B05D071
:10270000C023C7F8D430524811F02AFAD7F8D43091
:10271000002B40F096806423A7F882304D4800F0EB
:10272000B7FE4D4B01221A824B4BD968D7F8D030F7
:102730009A8B07F11403DC1C07F18203009308460F
:1027400011460222234601F02DF80346C7F8D43083
:10275000D7F8D430002B05D0404811F001FAC0233F
:10276000C7F8D430D7F8D430002B11D102E00A20BA
:1027700030F0BAFC384B1B8A012BF8D0364B1B8A41
:10278000002B05D0354811F0EBF9C023C7F8D43041
:10279000304800F0A5FE03233B7542237B750023E0
:1027A000BB75B7F8823003339BB2A7F8823007F1CC
:1027B0001403BB67B7F88230A7F87C30032387F88F
:1027C0007E30244800F064FE234B01221A82224B03
:1027D00099687B68DAB2D7F884309BB207F1880435
:1027E00000930123019307F1780302930846B96827
:1027F000234601F0D5FB0346C7F8D430D7F8D430D0
:10280000002B05D0164811F0ABF9C023C7F8D4301F
:10281000D7F8D430002B11D102E00A2030F064FC4C
:102820000D4B1B8A012BF8D00B4B1B8A002B05D0BC
:102830000B4811F095F9C023C7F8D430054800F0D3
:102840004FFED7F8D4301846DC37BD4690BD00BFE8
:10285000503E05085CD0FF1FA0A3FE1F703E050878
:10286000A03E050880B58EB000AFF860B9607A6010
:1028700000237B630023FB620723BB6200233B63CF
:1028800071E03A6B13465B0013449B001A46BB6829
:102890001A4407F11C0307CA83E80700FB69032BEE
:1028A0000DD0032B04D8012B18D0022B35D054E0C7
:1028B000B3F5807F1FD0B3F5847F3ED04DE03A6BF7
:1028C00013465B0013449B001A46BB681A44FB681E
:1028D0001A60FB6A43F00103FB6241E03B6A1B782C
:1028E000FB76FB7E012B05D0274811F039F9132325
:1028F0007B6335E034E03B6A07F114021046194669
:10290000042248F08DF97B69032B05D01F4811F094
:1029100027F9D1237B6323E022E03B6A1B78FB7617
:10292000FB7E012B04D01A4811F01AF9D1237B63E6
:10293000FB6A43F00203FB6212E03B6A1B78FB7602
:10294000FB7E012B04D0134811F00AF9D1237B63DD
:10295000FB6A43F00403FB6202E0D1237B6300BF08
:102960003B6B01333B633A6B7B689A4289D3FA6ACB
:10297000BB6A1A40BB6A9A4201D0D0237B637B6B4F
:1029800018463837BD4680BDC43E0508F83E0508E8
:102990002C3F05087C3F050880B592B000AFF86079
:1029A000B9607A6000237B644F4A07F11403106812
:1029B000516803C312891A800023FB630723BB639A
:1029C00000233B647DE03A6C13465B0013449B009C
:1029D0001A46BB681A4407F1280307CA83E80700B0
:1029E000BB6AB3F5807F1DD0B3F5807F04D8012B7F
:1029F00052D0032B07D05EE0B3F5857F3AD0B3F514
:102A0000C07F21D057E03A6C13465B0013449B0013
:102A10001A46BB681A44FB681A60FB6B43F001035B
:102A2000FB634BE0FB6A07F12002104619460422C3
:102A300048F0F6F83B6A032B05D02C4811F090F8CB
:102A4000D1237B643AE039E0FB6A07F114021046B7
:102A500019460A2248F0B2F878637B6B002B04D049
:102A6000234811F07DF8D1237B64FB6B43F0020314
:102A7000FB6323E0FB6A1B7887F8273097F8273041
:102A8000012B04D01B4811F06BF8D1237B64FB6B46
:102A900043F00403FB6311E0FB6A1B7887F82730DF
:102AA00097F82730012B05D0134811F059F813235C
:102AB0007B6403E002E0D1237B6400BF3B6C013305
:102AC0003B643A6C7B689A42FFF47DAFFA6BBB6B58
:102AD0001A40BB6B9A4201D0D0237B647B6C1846B2
:102AE0004837BD4680BD00BFD03C0508F83E05080C
:102AF000C43F0508F83F0508C43E050890B595B0E9
:102B000004AFF860B9607A603B607F4B1B78012BA3
:102B10000CD1FB68002B07D0FB681B79012B01D17E
:102B2000002305E0B02303E0B32301E04FF4C873B2
:102B3000FB630023BB630023FB850023BB620023F0
:102B40007B6200237B6300233B6300233B62002303
:102B5000FB616E4A07F1180312881A806C4A07F16C
:102B600014031188927819809A70BB681B68B3F5BA
:102B7000825F01D07123FB63FB6B002B07D107F150
:102B800028031846396D7A6DFFF76CFEF863FB6B0E
:102B9000002B07D107F12403184679683A68FFF73C
:102BA000FBFEF863FB6B002B0BD14423FB85FB8DF5
:102BB00018462EF07BF8B863BB6B002B01D10223C3
:102BC000FB63FB6B002B4BD1BB6A5A6807F12003F8
:102BD00010461946102249F0D5F80346FB61FB69FF
:102BE000002B3BD0FB69B3F5803F37DA494800F052
:102BF0004FFC454B01221A82434B9A6807F11C0394
:102C00000093BB6B019307F12E030293104603213F
:102C10001022002301F084F90346FB63FB6B002BB9
:102C200004D03D4810F09CFFC023FB63FB6B002BDE
:102C300010D102E00A2030F057FA334B1B8A012BE7
:102C4000F8D0314B1B8A002B04D0344810F088FF99
:102C50000623FB632F4800F043FC01E00623FB63DF
:102C6000FB6B002B13D1BB6B01331A4607F1180322
:102C70001B8813807A6ABB6B0133F98D01390C46CE
:102C8000104619462246FDF7F9FC786301E005235A
:102C9000FB63FB6B002B07D1BB6A184600210022A7
:102CA000FDF7ECFC386301E00523FB637B6B002B35
:102CB0001FD0BB6A5A68BB6A9B68386BF96DFEF718
:102CC00043F8F863FB6B002B13D1FB6B002B10D187
:102CD0007B6A5A687B6A9B68786BB96DFEF734F83B
:102CE000F863FB6B002B04D0FB6D1B681846FEF7E6
:102CF000ABF8BB6B002B02D0B86B2EF0A5F8FB6BCA
:102D000018464437BD4690BDA0A3FE1F9440050859
:102D1000984005085CD0FF1F404005086840050842
:102D200080B58AB000AFF860B9607A6000237B623A
:102D30007B683B62BB68FB61344B1B78012B0CD179
:102D4000FB68002B07D0FB681B79012B01D1002306
:102D500005E0B02303E0B32301E04FF4C8737B62C6
:102D60007B6A002B4CD1BB68002B02D07B68002B08
:102D700002D107237B6243E03B6A072B04D807F1AB
:102D80001403FB6108233B62214800F081FB1F4BC9
:102D900001221A821D4B9A683B6A9BB210460021A1
:102DA000FA6900F073FF03467B627B6A002B04D054
:102DB000184810F0D5FEC0237B627B6A002B10D12F
:102DC00002E00A2030F090F9104B1B8A012BF8D05A
:102DD0000E4B1B8A002B04D00E4810F0C1FE0623B8
:102DE0007B620B4800F07CFB07F11403FA699A42FE
:102DF00006D107F11403B86819467A6847F010FF46
:102E00007B6A18462837BD4680BD00BFA0A3FE1FC1
:102E10005CD0FF1F9C40050880B400AF002318461B
:102E2000BD465DF8047B704780B483B000AF786026
:102E30000B46FB70FB7801229A407B685A600C3786
:102E4000BD465DF8047B704780B483B000AF786006
:102E50000B46FB70FB784FF480329A407B685A60D7
:102E60000C37BD465DF8047B704700BF80B582B06B
:102E700000AF78607B681A687B681B7C1046194637
:102E8000FFF7D2FF0837BD4680BD00BF80B582B0D6
:102E900000AF78607B681A687B681B7C1046194617
:102EA000FFF7D2FF0837BD4680BD00BF80B582B0B6
:102EB00000AF78607B68002B08D07B681B68002B14
:102EC00004D07B681B681846FFF7D0FF0837BD4663
:102ED00080BD00BF80B582B000AF78607B68002BFA
:102EE00008D07B681B68002B04D07B681B681846E1
:102EF000FFF7CCFF0837BD4680BD00BF80B483B06C
:102F000000AF78607B689B6893F82630DBB2184688
:102F10000C37BD465DF8047B704700BF80B483B0BA
:102F200000AF78607B689B6893F82730DBB2184667
:102F30000C37BD465DF8047B704700BF80B582B09A
:102F400000AF786001204FF47A713CF04DF90346F0
:102F5000002B01D0002300E0012318460837BD46AE
:102F600080BD00BF80B582B000AF786001203CF02A
:102F700095F90837BD4680BD80B584B000AF786054
:102F80000B467B807B68DB68FB607B6899687A888E
:102F9000FB680846114698477B689B681846FFF710
:102FA000E1FF1037BD4680BD80B500AF034B1B6805
:102FB00018460021FFF7E0FF80BD00BFA8A4FE1F58
:102FC00080B500AF034B1B6818460021FFF7D4FF04
:102FD00080BD00BFA8A4FE1F80B582B000AF1B4B10
:102FE0001B681B687B607868FFF788FF0346002B2F
:102FF0000ED0786840F07CFA154841F2883133F001
:103000003FFA034683F00103DBB2002B00D000BF80
:103010007868FFF783FF0346002B0ED0786840F0F6
:1030200091FA0C4841F2883133F02AFA034683F0D2
:103030000103DBB2002B00D000BF044B1B68184615
:103040000121FFF799FF0837BD4680BDA8A4FE1FE8
:103050003DF4030829F4030880B586B002AF786018
:103060000A4B0093094B019301200949094A074B78
:103070003CF018F80346FB73FB7B002B01D10123C6
:1030800000E0002318461037BD4680BDD92F000848
:10309000A92F0008C12F000880B584B000AF786068
:1030A00001203CF051F80346FB73FB7B002B01D160
:1030B000012300E0002318461037BD4680BD00BF45
:1030C00090B589B002AFF860B9601346FB80012368
:1030D000FB82F868FFF732FF0346002B24D11A4A1F
:1030E000FB681360FB681A68FB681B795B001C4671
:1030F000FB88009301230193104601212246BB68FF
:103100003FF07CFB0346002B0BD0FB68DB681A46C4
:10311000FB689B68184601219047F868FFF722FF7B
:103120000CE00023FB8209E00223FB82FB68DB68E2
:103130001A46FB689B68184602219047FB8A18468E
:103140001C37BD4690BD00BFA8A4FE1F90B58BB034
:1031500004AFF860B9601346FB800123FB82F86876
:10316000FFF7ECFE0346002B26D11B4AFB681360D9
:10317000FB681A68FB681B795B001C46FB880093A0
:103180000123019301230293104601212246BB68CB
:103190003FF0B4FC0346002B0BD0FB68DB681A46FB
:1031A000FB689B68184601219047F868FFF7DAFE34
:1031B0000CE00023FB8209E00223FB82FB68DB6852
:1031C0001A46FB689B68184602219047FB8A1846FE
:1031D0001C37BD4690BD00BFA8A4FE1F80B584B0BB
:1031E00000AF78600B467B800123FB810123BB810C
:1031F0007868FFF7A3FE0346002B04D10023FB8170
:103200000023BB8103E00223FB810223BB817B6897
:10321000DB68002B08D07B68DB681A467B689968FE
:10322000BB89084619469047FB89022B02D0786873
:10323000FFF798FEFB8918461037BD4680BD00BFDA
:1032400080B584B000AF03463960FB801346BB8075
:103250000123FB81FB88222B11D0332B18D0112B9B
:1032600000D01EE0BB88402B08D8BB880F483968C7
:103270001A4647F0D5FC0023FB8112E011E0BB8821
:103280000B4839681A4647F0CBFC0023FB8108E065
:10329000BB88084839681A4647F0C2FC0023FB8106
:1032A00000BFFB8918461037BD4680BDB0A4FE1F85
:1032B00068D0FF1F60D0FF1FF0B587B000AF034696
:1032C000B9607A60FB810123FB82FB89222B21D02C
:1032D000332B29D0112B00D030E07B681B883F2B8B
:1032E00017D9BB68184A14469E4604F1400C75462F
:1032F00026460FCE28606960AA60EB6010340EF19C
:10330000100E6445F3D17B6840221A800023FB82B3
:1033100014E013E07B681B88B8680C491A4647F034
:103320007FFC0023FB8209E07B681B88B8680849A2
:103330001A4647F075FC0023FB8200BFFB8A184643
:103340001C37BD46F0BD00BFB0A4FE1F68D0FF1FF4
:1033500060D0FF1F80B584B000AFF860B9607A60BC
:10336000FB681B78002B09D1FB6801221A70F868F2
:10337000B9687A684FF47A7300F04CF81037BD469C
:1033800080BD00BF80B483B000AF78607B6800224E
:103390001A700C37BD465DF8047B704780B582B06B
:1033A00000AF786039607B68002B07D03B68002B4A
:1033B00004D0054879683A68FFF7CCFF024B1846FD
:1033C0000837BD4680BD00BFF0A4FE1F80B582B0A7
:1033D00000AF0E4B1B68002B15D02FF0C9FF024623
:1033E0000A4B1B689A420ED9094B5B68002B0AD026
:1033F000064B00221A60064B5B687B60044B9A68A0
:103400007B68104698470837BD4680BD00A5FE1F63
:10341000F0A4FE1F80B584B000AFF860B9607A6098
:103420003B600E4ABB6853600C4A7B6893602FF088
:103430009FFF01463B680A4AA2FB03239B094FF406
:103440007A7202FB03F3064AA2FB03239B090B4497
:10345000044A13601037BD4680BD00BFF0A4FE1FB4
:10346000D34D621000A5FE1F80B582B000AF78601A
:103470000120002103222EF0D5FB0246034B1A60E7
:10348000786800F02DF80837BD4680BDACD0FF1F2E
:1034900080B582B000AF78602DF03CFF0E4B1B78FA
:1034A000DBB2002B05D07868FFF7DEFF0A4B002265
:1034B0001A702DF05DFF094B1B6818464FF0FF3165
:1034C0002FF044F80346012B01D1002300E0012333
:1034D00018460837BD4680BD2891FE1FACD0FF1F9F
:1034E00080B582B000AF7860054B1B68184600219C
:1034F000002200232EF0E4FC0837BD4680BD00BF4B
:10350000ACD0FF1F80B500AF2DF004FF80BD00BF21
:1035100080B500AF2DF02CFF80BD00BF80B400AFA0
:10352000044B1B685A1C03490A601846BD465DF8E7
:10353000047B704704A5FE1F80B500AF2FF018FF75
:103540000346184680BD00BF80B584B000AF034677
:10355000FB80FB88FB60F8682FF0C6FD1037BD4686
:1035600080BD00BF80B584B000AF78600B467B8023
:103570007B68FB60FB68DB69FA6891697A880846BA
:1035800011469847FB6800221A841037BD4680BD5B
:1035900080B483B000AF78600C37BD465DF8047B23
:1035A000704700BF80B586B000AFF860084611468E
:1035B0001A4603467B810B467B721346FB8040F222
:1035C0000233FB82FB68002B06D0FB685B69002B93
:1035D00002D03B6A002B03D140F20333FB8245E06B
:1035E000FB681B8C012B03D140F20533FB823DE0CD
:1035F000FB6801221A84FB683B61FB6818460021C6
:10360000142247F00BFC7B7A022B07D13B6A1A7815
:103610003B699A733B6900229A6005E03B6900228E
:103620009A733B693A6A9A603B697A891A803B6966
:10363000FA885A803B6900221A733B69BA8C9A80D7
:103640003B690022DA803B697A7A5A73FB685A69CF
:103650007B7A104619463A6903F0F4FD0346FB8273
:10366000FB8A002B02D0FB6800221A84F868FFF75F
:103670008FFFFB8A18461837BD4680BD80B586B0DF
:1036800000AF0346B9607A60FB7300237B61BB68BF
:10369000002B00D124E00120242146F0E7FC034662
:1036A0007B617B69002B00D11AE07B69BA68DA6123
:1036B0007B697A689A617B6900221A84FB7B1846D1
:1036C0000A497A6903F0E6F902467B695A617B6927
:1036D0005B69002B04D1786946F0DAFF00237B6137
:1036E0007B6918461837BD4680BD00BF65350008A8
:1036F00080B584B000AF78607B68002B03D140F2C6
:103700000333FB8111E07B681B8C012B03D140F25A
:103710000533FB8109E07B685B69184603F028FAF2
:103720000346FB81786846F0B3FFFB8918461037E3
:10373000BD4680BD80B584B000AF78600B46FB709D
:1037400040F20233FB817B68002B03D07B685B690E
:10375000002B03D140F20333FB811AE07B681B8C02
:10376000012B03D140F20533FB8112E07B6801227B
:103770001A847B685A69FB7810461946002203F0C8
:1037800077FB0346FB81FB89002B02D07B6800227C
:103790001A847868FFF7FCFEFB8918461037BD468F
:1037A00080BD00BF80B586B000AFF8607B600B467F
:1037B0007B8113463B8140F20233FB82FB68002B86
:1037C00009D0FB685B69002B05D07B68002B02D019
:1037D0003B6A002B03D140F20333FB823CE0FB68E1
:1037E0001B8C012B03D140F20533FB8234E0FB68D4
:1037F00001221A84FB683B61FB68184600211422F1
:1038000047F00CFB3B697A891A803B693A895A80F8
:103810003B6900229A723B697A681A613B6A1A888E
:103820003B699A803B693A6ADA603B690022DA8038
:103830003B6900221A81FB685A693B699B7A1046F2
:1038400019463A6903F034FC0346FB82FB8A002BDD
:1038500002D0FB6800221A84F868FFF799FEFB8A01
:1038600018461837BD4680BD90B589B002AFF860E4
:10387000084611461A4603467B810B467B72134667
:10388000FB8040F20333FB827B7A002B03D07B7AF0
:10389000402B00D00CE079897A7AFC88BB6A0093CF
:1038A000BB8D0193F8682346FFF77CFE0346FB823D
:1038B000FB8A18461C37BD4690BD00BF80B584B05A
:1038C00000AF78600B467B807B68FB60FB689B6A7F
:1038D000FA68516A7A88084611469847FB680022C0
:1038E0009A851037BD4680BD80B483B000AF786044
:1038F0000C37BD465DF8047B704700BF80B584B0CF
:1039000000AF7860084611461A460346FB700B4626
:10391000BB7013467B7040F20243FB817B68002B37
:103920000CD07B681B6A002B08D0FB69002B05D0EC
:10393000BB69002B02D03B6A002B03D140F203434A
:10394000FB8136E07B689B8D012B03D140F2054360
:10395000FB812EE07B6801229A857B68BB607B68D7
:1039600018460021202247F059FABB68BA781A702D
:10397000BB687A785A70BB683A6A1A617B78002B08
:1039800003D0BB68BA695A6003E0BB691A88BB6898
:103990005A80BB68FA69DA60BB683A6A1A617B6868
:1039A0001A6AFB7810461946BA6804F083F9034690
:1039B000FB817868FFF798FFFB8918461037BD46F2
:1039C00080BD00BF80B586B000AFF8607A601A464F
:1039D0000B46FB721346BB7240F20243FB82FB684C
:1039E000002B0CD0FB681B6A002B08D07B68002BD7
:1039F00005D07B6A002B02D0BB6A002B03D140F2BA
:103A00000343FB8231E0FB689B8D012B03D140F225
:103A10000543FB8229E0FB6801229A85FB683B6134
:103A2000FB6818460021202247F0F8F93B697A68C4
:103A30001A603B69BA7A9A733B693A8C9A813B69FE
:103A40007A6A5A603B69BA6A9A60FB681A6AFB7ABA
:103A5000104619463A6903F0A7FD0346FB82FB8A2C
:103A6000002B02D0FB6800229A85F868FFF73CFF24
:103A7000FB8A18461837BD4680BD00BF80B586B0AA
:103A800000AFF8607A601A460B46FB721346BB72B1
:103A900040F20243FB82FB68002B0CD0FB681B6AE0
:103AA000002B08D07B68002B05D03B6A002B02D08E
:103AB000FB6A002B03D140F20343FB823EE0FB682C
:103AC0009B8D012B03D140F20543FB8236E0FB685E
:103AD00001229A85FB683B61FB6818460021202281
:103AE00047F09CF93B697A681A603B69BA7A1A71A7
:103AF0003B693A6A9A603B69BA8C9A813B6997F84C
:103B000028209A7397F82830002B04D1FB6A1A8872
:103B10003B699A8202E03B69FA6A1A61FB681A6A99
:103B2000FB7A104619463A6903F068FE0346FB82A9
:103B3000FB8A002B02D0FB6800229A85F868FFF709
:103B4000D3FEFB8A18461837BD4680BD80B586B0C7
:103B500000AFF8607A601A460B46FB7213463B8151
:103B600040F20243FB82FB689B8D012B03D140F2A4
:103B70000543FB8226E0FB6801229A85FB683B61D6
:103B8000FB6818460021202247F048F93B693A6A51
:103B90009A603B69BA8C5A803B697A685A603B6983
:103BA0003A891A80FB681A6AFB7A104619463A6904
:103BB00003F018FC0346FB82FB8A002B02D0FB6853
:103BC00000229A85F868FFF78FFEFB8A184618379F
:103BD000BD4680BD80B586B000AF0346B9607A604F
:103BE000FB7300237B61BB68002B00D124E0012024
:103BF000302146F03BFA03467B617B69002B00D104
:103C00001AE07B69BA689A627B697A685A627B6952
:103C100000229A85FB7B18460A497A6902F03AFF2E
:103C200002467B691A627B691B6A002B04D17869A2
:103C300046F02EFD00237B617B6918461837BD4690
:103C400080BD00BFBD38000880B584B000AF78608B
:103C50007B68002B03D140F20343FB8111E07B68BA
:103C60009B8D012B03D140F20543FB8109E07B686A
:103C70001B6A184602F07CFF0346FB81786846F019
:103C800007FDFB8918461037BD4680BD90B589B049
:103C900002AFF8607A601A460B46FB7213463B810E
:103CA00040F20243FB82FB68002B06D0FB681B6AD4
:103CB000002B02D07B68002B03D140F20343FB8230
:103CC0000DE0FA7A3C890023009300230193F86801
:103CD00011467A682346FFF739FF0346FB82FB8AC9
:103CE00018461C37BD4690BD80B584B000AF7860E3
:103CF000396040F20243FB817B68002B06D07B6871
:103D00001B6A002B02D03B68002B03D140F2034317
:103D1000FB8132E07B689B8D012B03D140F2054390
:103D2000FB812AE07B6801229A857B68BB607B6807
:103D300018460021202247F071F8BB6800221A7350
:103D4000BB683A689A60BB680022DA61BB680022EF
:103D50005A60BB6800221A607B681A6A3B689B79CC
:103D600010461946BA6804F069F90346FB81FB89DD
:103D7000002B02D07B6800229A857868FFF7B4FD9B
:103D8000FB8918461037BD4680BD00BF80B586B0A0
:103D900000AFF860B9603B601346FB7140F202432C
:103DA000FB82FB68002B09D0FB681B6A002B05D047
:103DB000BB68002B02D03B68002B03D140F20343C9
:103DC000FB8249E0FB689B8D012B03D140F2054348
:103DD000FB8241E0FB6801229A85FB683B61FB683E
:103DE00018460021202247F019F83B69FA795A73E6
:103DF0003B6902221A733B69BA689A603B699B6807
:103E00009B881A463B69DA613B6900225A603B692C
:103E100000221A60FB79002B03D03B693A685A6094
:103E200009E03B691B7B43F01003DAB23B691A736C
:103E30003B693A681A60FB681A6ABB689B7910464E
:103E400019463A6904F0FAF80346FB82FB8A002B14
:103E500002D0FB6800229A85F868FFF745FDFB8ACF
:103E600018461837BD4680BD80B586B000AFF860F3
:103E7000B9607A6040F20243FB82FB68002B09D0F4
:103E8000FB681B6A002B05D0BB68002B02D07B6847
:103E9000002B03D140F20343FB8238E0FB689B8D8B
:103EA000012B03D140F20543FB8230E0FB68012285
:103EB0009A85FB683B61FB6818460021202246F08A
:103EC000ADFF3B697A685A613B6903221A733B690B
:103ED000BA689A603B699B689B881A463B69DA61BD
:103EE0003B6900225A603B6900221A60FB681A6A2B
:103EF000BB689B79104619463A6904F09FF803465F
:103F0000FB82FB8A002B02D0FB6800229A85F868AE
:103F1000FFF7EAFCFB8A18461837BD4680BD00BF94
:103F200090B587B004AF7860084611461A4603463C
:103F3000FB700B46BB7013467B70F978BA787C78BF
:103F4000BB690093FB6901933B6A0293786823463F
:103F5000FFF7D4FC034618460C37BD4690BD00BFA2
:103F600090B589B004AFF860B96011461A460B46A7
:103F7000FB711346BB80FC79BB8800933B6A0193BD
:103F80007B6A029300230393F8681121BA682346E1
:103F9000FFF718FD034618461437BD4690BD00BF15
:103FA00090B58BB006AFF860B9603B601346FB710B
:103FB000FC793B6800933B8C019397F82430029383
:103FC000BB6A039300230493F8681121BA6823465F
:103FD000FFF754FD034618461437BD4690BD00BF99
:103FE00080B586B000AFF8607A601A460B467B81D8
:103FF00013467B7240F20243FB82FB68002B10D019
:10400000FB681B6A002B0CD07B68002B09D07B68F7
:104010001B68002B05D07B7A012B06D13B6A002B55
:1040200003D140F20343FB822DE0FB689B8D012B03
:1040300003D140F20543FB8225E0FB6801229A850B
:10404000FB683B61FB6818460021202246F0E6FE33
:104050003B697A891A813B697A681A603B697A7A86
:104060009A723B693A6A5A60FB681B6A18460121DA
:104070003A6903F0CBFC0346FB82FB8A002B02D09B
:10408000FB6800229A85F868FFF72EFCFB8A184629
:104090001837BD4680BD00BF80B584B000AF7860E2
:1040A0004FF48173FB817B6893F82530032B25D077
:1040B0007B681B697A689A607B68002283F82A20F3
:1040C0007B6893F82A30022B00D917E07B68B12275
:1040D00083F826207B68012283F82B207B6801224D
:1040E00083F82420786800F0ABF80346FB81FB8955
:1040F000002B03D17B68032283F82520FB89184617
:104100001037BD4680BD00BF80B588B002AFF860F3
:10411000B9603B601346FB804FF48173FB82FB6800
:1041200093F82430022B26D1FB6893F82530032B1B
:1041300021D0FB683A68DA61FB683A6A1A62FA8849
:104140003B6A0093F868B9683B6801F013FA0346CC
:10415000FB82FB8A002B03D1FB68032283F8252016
:10416000FB8A002B07D1FB681B8D002B03D1FB685A
:10417000032283F82520FB8A18461837BD4680BDE8
:1041800080B584B000AF78604FF48173FB817B68A9
:1041900093F82530032B1ED00023FB817868002183
:1041A0000022002300F01CF87B681B691846FEF70C
:1041B00073FF7B689B681846FEF78CFE7B68DB68A4
:1041C0001846FEF787FE7B68012283F824207B686F
:1041D000042283F82520FB8918461037BD4680BD90
:1041E00080B584B000AFF8607A601A460B467B81D8
:1041F00013463B81FB685B69002B07D0FB685B695A
:10420000FA6891697A89084611469847FB687A8965
:104210001A85FB68042283F82520FB6893F8243074
:10422000012B00D008E07B89002B04D1FB6802221F
:1042300083F82420FFE700BF1037BD4680BD00BFD4
:1042400080B584B000AF78604FF48173FB817B68E8
:1042500093F82A30022B04D07B6893F82A30002B85
:1042600051D17B6893F82630B22B24D0B32B42D0A7
:10427000B12B00D046E07B6893F82A30002B04D1A4
:104280007B689B681846FEF725FE7B68DB6818464E
:10429000FEF720FE7B68B22283F826207B68D3F8E5
:1042A000D43318461F497A684FF4FA63FFF7B2F81F
:1042B0000023FB8126E07B6893F82A30002B04D191
:1042C0007B689B681846FEF7F1FD7B68DB68184643
:1042D000FEF7ECFD7B68B32283F826207B68D3F8D9
:1042E000D43318460F497A6842F6E063FFF792F834
:1042F0000023FB8106E078680B4901F00FF90346C3
:10430000FB8100BF09E07B68012283F8A521786862
:10431000054901F003F90346FB81FB891846103774
:10432000BD4680BD41420008E141000880B582B031
:1043300000AF786039607B68002283F85820786885
:10434000174900F027FC0346002B02D04FF481737D
:1043500021E07B683A685A677B68012283F858201D
:104360007B68032283F859207B68032283F85A2054
:104370007B68002283F85E207B68002283F85D2042
:104380007B6803F5D4727B689A667B6803F2BE2271
:104390007B68DA66002318460837BD4680BD00BF3B
:1043A0004147000880B582B000AF78600B467B8043
:1043B0007B6893F85830012B02D17B88002B02D107
:1043C0004FF481731AE07B68022283F858207B68DF
:1043D000002283F85C207B68002283F85B207B68E6
:1043E0007A88A3F864207B680A221A667B8878683A
:1043F00019460022002300F089F8034618460837C2
:10440000BD4680BD80B582B000AF78607B6893F810
:104410005830012B02D04FF4817317E07B680322E0
:1044200083F858207B68002283F85C207B68012297
:1044300083F85B20FFF780F802467B681A677B6889
:10444000044A1A66786800F01BFC034618460837D1
:10445000BD4680BD20BF020080B485B000AF0346DA
:104460000A46FB8013467B717B799AB2FB885340E6
:104470009BB2DBB2FB81FB8903F00F03BB81BB89DD
:104480001B019AB2FB8953407B817B891B093B81CD
:104490007B895B009AB23B8953409BB21B019AB265
:1044A000BB8953409BB2DB009AB23B8953409AB21E
:1044B000FB881B0A9BB253409BB218461437BD467B
:1044C0005DF8047B704700BF80B584B000AF7860B2
:1044D0000B467B800023BB810023FB810DE0FB8921
:1044E0007A6813441B78BA8910461946FFF7B4FF5F
:1044F0000346BB81FB890133FB81FA897B889A42A1
:10450000EDD3BB8918461037BD4680BD80B586B057
:1045100000AF7860084611461A4603467B800B467A
:104520007B7013463B707B6893F85A30FB827B7834
:10453000012B08D17B6893F85A309BB201339BB2B0
:1045400003F00303FB827B689B6E3B617B78022B4D
:1045500004D10023FB827B68DB6E3B617B78002B00
:1045600007D17B6893F85830092B02D17B68DB6E4A
:104570003B61FB8ADAB23B691A703B691A787B7837
:104580005B01DBB21343DAB23B691A707B88002B04
:1045900022D03B78002B04D07B6893F85E30002B50
:1045A0000AD07B6893F859300133DBB203F0030380
:1045B000DAB27B6883F859203B691A787B6893F8F4
:1045C00059309B00DBB21343DAB23B691A707B6847
:1045D000002283F85E2006E03B691B7863F07F03CE
:1045E000DAB23B691A703B6901337A88120A92B2D7
:1045F000D2B21A703B6902337A88D2B21A707B88C1
:1046000003339BB238691946FFF75EFF0346FB810F
:104610007B8803331A463B691344FA89120A92B223
:10462000D2B21A707B8804331A463B691344FA8964
:10463000D2B21A707B8805339BB2786839691A4602
:1046400000F0F4FA034618461837BD4680BD00BF97
:1046500080B584B000AF78600023FB817B680322C3
:1046600083F859207B68032283F85A207B68012253
:1046700083F85E207B68052283F858207868002143
:1046800002220023FFF742FF0346FB81FB89184605
:104690001037BD4680BD00BF80B586B000AF7860E2
:1046A0000B46FB70FEF748FFF8607B685B6CFA68AE
:1046B000D31A3B617B685A6CFB689A4204D97B68C9
:1046C0005B6CFA68D31A3B613B691C4A93422ED853
:1046D0007B6893F85C30032B09D17B68002283F858
:1046E0005C207868FFF7B4FF0346FB8217E07B6825
:1046F00093F85C300133DAB27B6883F85C207B6826
:10470000022283F858207B68B3F86420FB7878682D
:1047100011461A460123FFF7F9FE0346FB82FB8A86
:10472000002B08D07B68062283F8582003E07B68C2
:10473000082283F858201837BD4680BD1FBF0200ED
:1047400090B589B000AFF8607A601A460B467B815D
:1047500013463B8100237B750023FB770023BB7747
:1047600000237B7701233B7700237B8300233B835C
:104770000023FB827B89B3F5837F08D1FB6893F824
:104780005830012B03D0FB68082283F85820FB68BF
:1047900093F85830013B0A2B00F2E68101A252F84F
:1047A00023F000BFD1470008F7470008374800084A
:1047B000854A0008FF4A0008E54A0008694B0008DE
:1047C000194B0008714A0008E1480008B149000887
:1047D0007B89002B01D0012300E002233B750023DD
:1047E0003B77FB685C6F3B7D9BB2F8681946002203
:1047F0000023A047C6E17B89B3F5817F04D1FB6824
:10480000052283F85820BDE1FEF796FE0246FB68BC
:104810001A67FB68032283F85820F86800F030FA22
:104820000346002B04D0FB68062283F85820A9E138
:1048300000233B77A6E17B89B3F5817F04D1FB6838
:10484000052283F858209DE13B89042B04D8FB689E
:10485000062283F8582095E17B681B787B757B7D69
:10486000DB09FB747B7D03F060035B117B777B7D51
:1048700003F00303BB777B7D03F00C039B10FB77F6
:104880007B6801331B781B029AB27B6802331B786A
:104890009BB213439BB27B833B89023B7A681344F0
:1048A0001B781B0299B23B89013B7A6813441B7841
:1048B0009BB20A4613439BB23B833B89023B9BB2AC
:1048C00078681946FFF700FE0346FB82FB7C012B4C
:1048D00001D10B2200E00A22FB6883F8582051E145
:1048E0003A8BFB8A9A420DD17B8B002B0AD03A89F6
:1048F0007B8B05339A4205D17B7F032B02D07B7FD4
:10490000022B04D1FB68062283F858203AE1FA7F93
:10491000FB6893F85A30013303F003039A420CD03A
:10492000FB68092283F8582000233B77F8680021B0
:1049300000220023FFF7EAFD24E1FB6893F85930D9
:10494000BA7F9A4204D0FB68092283F8582019E103
:104950007B7F012B04D1FB68052283F8582011E1ED
:10496000FB6893F85A300133DBB203F00303DAB289
:10497000FB6883F85A20FB68DA6E3B891046796839
:104980001A4646F04DF9FB683A89A3F86620FB68A1
:10499000002283F85C20FB68042283F8582000235F
:1049A0003B77F868002100220023FFF7AFFDE9E024
:1049B000FB6893F85B301A467B7F022B0CBF012308
:1049C0000023DBB29A4204D0FB68092283F8582006
:1049D000D8E03A8BFB8A9A4204D0FB68052283F820
:1049E0005820CFE03B89052B02D87B8B002B04D0CD
:1049F000FB68092283F85820C4E07B7F022B10D18A
:104A0000FB68092283F85820FB68012283F85E20A6
:104A1000FB68032283F85920FB68032283F85A209D
:104A2000B0E0FB7F002B08D17B7F032B05D0FB6818
:104A300093F85930BA7F9A4204D0FB68092283F870
:104A400058209FE07B7F012B04D1FB68052283F86F
:104A5000582097E0FB68012283F8582000233B7719
:104A6000FB685C6FF868022100220023A04789E000
:104A7000FB68032283F8582000233B77F86800F096
:104A8000FFF87FE07B89B3F5817F04D1FB680522C5
:104A900083F8582076E0FB68012283F85820002331
:104AA0003B77FB6893F85B30002B0DD0FB685C6FA5
:104AB000FB68DB6EDA1CFB68B3F86630053B9BB223
:104AC000F8680421A0475DE0FB685C6FFB68DB6E63
:104AD000DA1CFB68B3F86630053B9BB2F868062128
:104AE000A0474FE0FB68022283F8582000233B7761
:104AF000F868002101220023FFF708FD42E0F86872
:104B00000021FFF7C9FDFB6893F85830082B02D04D
:104B100000233B7736E035E0FB6893F85E30002BEE
:104B200003D1FB68012283F85D20FB6893F85D30B8
:104B3000002B0BD1FB68012283F85820FB685C6FC7
:104B4000F868012100220023A0470AE0F868FFF777
:104B50007FFDFB68082283F85820FB68002283F859
:104B60005D2000233B770DE0FB68012283F858208D
:104B7000FB685C6FF868012100220023A047002336
:104B80003B7700BF3B7F012B3FF4F4AD2437BD469C
:104B900090BD00BF80B582B000AF786039607B689F
:104BA0003A68C3F8A0217B68002283F897217B68CC
:104BB000BB2283F8A4217B681B697A6812781A717A
:104BC0007B681B69184ADA607B68C822A3F89421C5
:104BD0007B6893F82B30012B0AD17B681B69184640
:104BE000FEF73AFA0346002B02D04FF4817316E029
:104BF0007B6893F8A531012B08D17B68992283F853
:104C0000A5217B68052283F8972103E07B680122B8
:104C100083F897217868002100F064FA0023184691
:104C20000837BD4680BD00BFC153000880B584B0C1
:104C300000AFF860B9601346FB80FB6893F89731CA
:104C4000012B07D0FB6893F89731022B02D04FF469
:104C5000817310E0FB68012283F89621FB68BA6833
:104C6000C3F89821FB68FA88A3F89C21F868002112
:104C700000F038FA002318461037BD4680BD00BF4B
:104C800080B582B000AF78607B6893F89731012BD4
:104C900007D07B6893F89731022B02D04FF48173D1
:104CA00008E07B68022283F896217868002100F0F2
:104CB00019FA002318460837BD4680BD80B582B07A
:104CC00000AF78600B46FB7013463B807B68FA7838
:104CD00083F878207B680122A3F88E217B683A88CC
:104CE000A3F890217B68012283F892217B68C82277
:104CF000A3F894217B68012283F893217B681969CA
:104D00007B6803F178027B68B3F88E310846114660
:104D10001A46FEF7D5F90837BD4680BD80B584B088
:104D200000AFF8607B600B46FB7213463B81FB686B
:104D3000FA7A83F87820FB6803F179023B89104600
:104D400079681A4645F06CFF3B8901339AB2FB68DB
:104D5000A3F88E21FB68022283F89221FB68C82207
:104D6000A3F89421FB68012283F89321FB68196959
:104D7000FB6803F17802FB68B3F88E3108461146F0
:104D80001A46FEF79DF91037BD4680BD80B582B04A
:104D900000AF7860786882210422FFF78FFF083720
:104DA000BD4680BD80B584B000AF78600B467B8087
:104DB0007B681B69DB68BB607B681B690022DA606B
:104DC0007B681A697B8810461946FEF707FA034686
:104DD000FB817B681B69BA68DA60FB89002B1AD0FB
:104DE0007B68B3F894315A1E91B27A68A2F8941194
:104DF000002B0CD07B68D3F8D433184609497A6865
:104E00004FF47A73FEF706FB0123FB8105E04FF4B4
:104E10008173FB8101E00023FB81FB891846103779
:104E2000BD4680BD294E000890B58BB000AF7860BC
:104E30000223FB847B68BB61BB699B881B0A9BB216
:104E4000DBB23B73BB699B88DBB27B7300237B8443
:104E50000023FB61002387F82530BB6993F8A43158
:104E6000552B00F09A80552B0DDC222B00F0EE80A4
:104E7000222B03DC112B00F0DD8029E1332B3DD008
:104E8000442B45D024E1882B00F0EA80882B06DCF7
:104E9000662B00F08C80772B00F0AB8018E1AA2BFA
:104EA00000F00081BB2B00D012E178686421FFF78D
:104EB00079FF0346FB84FB8C002B07D1BB693322AF
:104EC00083F8A421012387F8253016E0FB8CB3F585
:104ED000817F12D1BB69AA2283F8A4210023FB6140
:104EE00000237B84BB69D3F8D43318467C49BA6964
:104EF00042F6E063FEF78EFAEAE0E9E0BB6944229D
:104F000083F8A421B86984210422FFF7D7FEDFE0EB
:104F1000BB6993F87A301B029AB2BB6993F87B3075
:104F20009BB213439BB2FB8280233B74BB695B88BB
:104F3000B3F5C87F11D9FB8AB3F5C87F0DD8042318
:104F40007B74BB69552283F8A42107F11003B8696B
:104F500089210222FFF7E2FE1EE0BB695B88B3F500
:104F6000C87F11D8FB8AB3F5C87F0DD903237B74A2
:104F7000BB69552283F8A42107F11003B869892180
:104F80000222FFF7CBFE07E0BB69662283F8A4216B
:104F9000012387F825309BE09AE0BB69662283F8FD
:104FA000A421B86984210422FFF788FE90E0BB6940
:104FB00093F87A301B029AB2BB6993F87B309BB2AC
:104FC00013439BB2FB82BB695B88FA8A9A4208D280
:104FD0000023FB6100237B84BB69AA2283F8A42100
:104FE00003E0BB69772283F8A421012387F82530E9
:104FF0006EE0BB695B8878681946FFF7D3FE03460D
:10500000FB84FB8C002B07D1BB69112283F8A42100
:10501000012387F825300CE0FB8CB3F5817F08D1A4
:10502000BB69AA2283F8A4210023FB6100237B84AF
:105030004EE04DE0BB69222283F8A42107F10C0366
:10504000B86981210222FFF769FE41E0BB6988222D
:1050500083F8A421B86981210222FFF72FFE37E0EF
:10506000BB69AA2283F8A421BB6993F878301B029C
:105070009AB2BB6993F879309BB213439BB2BB825F
:10508000BB699B88BA8A9A4204D8BB69BA8A9A805B
:105090000023FB840023FB6100237B84012387F82A
:1050A000253015E0FB8C002B04D1BB69022283F86C
:1050B000972103E0BB69002283F89721BB69D3F8ED
:1050C000A041FA8C7B8CB8691146FA69A04700BFF1
:1050D00097F82530002B7FF4BDAE2C37BD4690BD30
:1050E000294E000890B587B000AF78600B467B80F2
:1050F0007B88002B0DD07B68022283F897217B6888
:10510000D3F8A0417B887868194600220023A04785
:10511000EBE07B6893F89731013B042B00F2D780DA
:1051200001A252F823F000BF455100084D5100087C
:105130006B510008AD5200083D510008786800F03E
:105140007BF9D2E07868FFF76FFECEE07B68032240
:1051500083F897217B6893F89631022B05D1786804
:1051600082210422FFF7AAFDBFE07B6893F8963105
:10517000022B56D17B6893F8783003F04003002B64
:105180004FD07B6893F87A301B029AB27B6893F811
:105190007B309BB213439BB27B827B8A002B0FD068
:1051A0007B689B887A8A9A420AD87B68042283F8B3
:1051B00097217B8A786880211A46FFF77FFD2FE0D0
:1051C000FEF7BAF9F8607B681B6FFA68D31A7B6147
:1051D0007B681A6FFB689A4204D97B681B6FFA6878
:1051E000D31A7B617B681A6E7B699A420AD97B6805
:1051F000D3F8D43318463E497A6841F28833FEF733
:1052000009F90DE07B68022283F897217B68D3F8C7
:10521000A04178684FF4817100220023A04744E048
:1052200043E07B6893F89631012B0ED17B68042212
:1052300083F897217B68B3F89C217B68D3F8983179
:1052400078688021FFF76AFD2FE0FEF775F9F860B6
:105250007B681B6FFA68D31A7B617B681A6FFB68E7
:105260009A4204D97B681B6FFA68D31A7B617B680A
:105270001A6E7B699A420AD97B68D3F8D4331846F0
:105280001B497A6841F28833FEF7C4F80DE07B6869
:10529000022283F897217B68D3F8A04178684FF405
:1052A000817100220023A0471FE01EE07B680222DC
:1052B00083F897217B68D3F8A0417B6803F17802DB
:1052C0007B68B3F8903178680021A0470DE07B68D7
:1052D000012283F897217B68D3F8A04178684FF4C6
:1052E000817100220023A04700BF1C37BD4690BD3E
:1052F0008D4D000880B584B000AF78607B68FB609E
:10530000FB6893F89331012B0DD1FB681969FB6899
:1053100003F17802FB68B3F88E31084611461A464D
:10532000FDF7CEFE11E0FB6893F89331022B0CD110
:10533000FB681969FB6803F17802FB68B3F89031E8
:10534000084611461A46FDF701FF1037BD4680BDDD
:1053500080B584B000AF78607B68FB60FB6893F831
:105360009231012B20D1FB6893F89331012B11D19D
:10537000FB68022283F89321FB681969FB6803F13B
:105380007802FB68B3F89031084611461A46FDF7DB
:10539000DDFE12E0FB6893F89331022B0DD1F86823
:1053A0000021FFF79FFE08E0FB6893F89231022B83
:1053B00003D1F8680021FFF795FE1037BD4680BD88
:1053C00080B584B000AF78600B467B807B68FB6063
:1053D0007B88002B1ED0002B26DB022B24DCFB68F5
:1053E000B3F894315A1E91B2FA68A2F89411002BC6
:1053F0000AD0FB68D3F8D43318460D49FA684FF445
:105400007A73FEF707F810E0F8684FF48371FFF73E
:1054100069FE0AE0FB68D3F8D43318460549FA68F8
:105420003223FDF7F7FF00E000BF1037BD4680BD17
:10543000F55200085153000880B584B000AF786081
:105440000023BB817B6893F8A531993B0A2B5FD879
:1054500001A252F823F000BF85540008115500083E
:105460001155000811550008115500081155000884
:105470001155000811550008FF5400089954000800
:10548000E15400087B68A22283F8A5217868822174
:105490000422FFF713FC3CE07B6893F8783003F0BC
:1054A0000803DAB27B6883F878207B6893F8783059
:1054B000082B0BD17B68A32283F8A52107F10C03ED
:1054C000786888210222FFF729FC22E07B6800220D
:1054D00083F8972178684FF48171FFF703FE18E095
:1054E0007B68A12283F8A5217B68D3F8D4331846C2
:1054F00009497A6842F6E063FDF78CFF09E07B68B2
:10550000012283F8972178680021FFF7EBFD00E086
:1055100000BF1037BD4680BD3954000880B582B049
:1055200000AF786039607B68002283F82C207868AF
:105530000F49FEF7FBFE0346002B02D04FF48173A8
:1055400011E07B68012283F850207B683A685A6535
:105550007B68012283F82C207B689B88063B9AB2EB
:105560007B685A87002318460837BD4680BD00BFB8
:105570001558000880B586B000AFF860B9603B6090
:105580001346FB804FF48173FB82BB68002B39D03C
:10559000FB88002B36D0FB6893F82C30012B00D011
:1055A00030E0FB68022283F82C20FDF7C5FF02469D
:1055B000FB685A64FB68BA681A63FB68FA88DA8683
:1055C000FB6800221A87FB683A68DA63FB683A6A6C
:1055D0001A64FB6800229A86FB68002283F8482040
:1055E000FB68002283F84920FB68002283F84B20E7
:1055F000FB684FF48172A3F84C20F86800F05EF865
:105600000346FB82FB8A18461837BD4680BD00BFA3
:1056100080B582B000AF78607B6893F82C30012BA6
:1056200002D04FF481730DE07B6800221A877B68FB
:1056300000229A867B68022283F82C20786800F08A
:105640003DF8034618460837BD4680BD80B485B096
:1056500000AF78607B685B8FBB817B68DA8E7B688C
:105660001B8FD31A7B817B681B8F002B06D17A8915
:10567000BB899A4202D80023FB7317E07B681B8F1B
:10568000002B06D17A89BB899A4202D90123FB7388
:105690000CE07B681B8F002B06D07A89BB899A426D
:1056A00002D90223FB7301E00423FB73FB7B184642
:1056B0001437BD465DF8047B704700BF80B584B0E9
:1056C00000AF786000237B737B685B8FFB81786819
:1056D000FFF7BCFF03467B737B68DB8E1A467B6853
:1056E0001B8FD21AFB899A4205DA7B68DA8E7B68B7
:1056F0001B8FD31AFB817B687A7B83F8AB217B6895
:1057000003F5D6717B681B6B7A68128F1A44FB898C
:10571000084611461A4645F083FA7B681A8FFB89C2
:1057200013449AB27B681A87FB8901339BB278686D
:105730001946FEF737FE034618461037BD4680BDB2
:1057400080B584B000AF78600123FB817B680722BD
:1057500083F8AB217B6800229A86FB89786819461A
:10576000FEF720FE034618461037BD4680BD00BF39
:1057700080B485B000AF03460A46FB711346BB7187
:105780004FF48173FB81FB79072B0BD0FB79002B46
:1057900008D0FB79042B05D0FB79022B02D0FB79D2
:1057A000012B10D1FB790B4A12F81330BA799A42C7
:1057B00007D0FB79074A5B0013445B78BA799A42B9
:1057C00001D10023FB81FB8918461437BD465DF8E3
:1057D000047B70470495FE1F80B485B000AF7860ED
:1057E0000B46FB700023FB81FB7823F007037B73E0
:1057F0007B6893F85030002B05D17B7B002B02D0C7
:105800004FF48173FB81FB8918461437BD465DF860
:10581000047B704790B587B000AFF8607A601A4695
:105820000B467B8113463B810023FB750023BB7530
:1058300001237B757B68002B06D07B681B78FB758A
:10584000FB7D03F00703BB757B8903F00103002B8D
:1058500008D0FB68062283F82C20FB684FF4817285
:10586000A3F84C203B89002B10D0FB7DF86819462B
:10587000FFF7B2FF0346002B08D0FB68062283F82F
:105880002C20FB684FF48172A3F84C20FB680022A7
:1058900083F85020FB6893F82C30013B072B00F273
:1058A000BF8101A252F823F0C9580008DD58000852
:1058B000215C00086D590008A35A0008EF5B00083E
:1058C000AD5B0008515B000800237B75FB685C6DD5
:1058D000F868002100220023A047B2E17B8903F091
:1058E0000203002B3CD0FB681A8FFB68DB8E9A42C8
:1058F00015D2BB7D072B04D1FB68082283F82C202E
:105900009FE13B89002B04D0FB68062283F82C2002
:1059100097E100237B75F868FFF7D0FE25E0FB6870
:10592000042283F82C20FB6800229A86FB68002260
:1059300083F84A20FB68012283F84B207B8903F01F
:105940000403002B11D1F868FEF75CFD0346002B21
:1059500003D0FB68062283F82C2000237B7570E1BE
:10596000FB68062283F82C206BE16AE17B8903F057
:105970000403002B00F08F803B89002B04D1FB68CF
:10598000062283F82C205CE1FB68B3F84C30B3F5B9
:10599000827F14D1BB7D042B05D0F868FEF732FD61
:1059A0000346002B04D0FB68062283F82C2048E134
:1059B000FB68042283F82C2000237B7541E1FB68FF
:1059C00093F84A30BA7D10461946FFF7D1FE0346D8
:1059D000002B04D0FB68082283F82C2031E1BB7D2A
:1059E00003F00703DAB2FB6883F84A207B68002BD8
:1059F00004D1FB68062283F82C2022E1BB7D002B1A
:105A000002D0BB7D042B41D1FB689B8E1A463B899B
:105A10001344013BFA68126C1288934209DDFB685B
:105A20004FF48272A3F84C20FB68062283F82C20E6
:105A300007E100237B75FB68DB6BFA68928E99188F
:105A40007B685A1C3B89013B084611461A4645F0C3
:105A5000E7F8FB689A8E3B8913449BB2013B9AB2EC
:105A6000FB689A86FB68012283F82C20FB681B6C7C
:105A7000FA68928E1A80FB685C6DFB68DA6BFB68D3
:105A80001B6C1B88F8680021A04709E0FB68052211
:105A900083F82C2004E0FB68062283F82C20D0E059
:105AA000CFE03A89FB685B8F01339A4204D0FB68F0
:105AB000072283F82C20C4E0FB689B8E1A463B89A2
:105AC0001344013BFA68126C1288934209DDFB68AB
:105AD0004FF48272A3F84C20FB68042283F82C2038
